:100000000C9463000C948B000C948B000C943F04B4
:100010000C943F040C943F040C948B000C948B00C4
:100020000C948B000C948B000C948B000C948B0024
:100030000C948B000C948B000C948B000C948B0014
:100040000C94F5030C948B000C9477030C945103DF
:100050000C948B000C948B000C948B000C948B00F4
:100060000C948B000C948B0000000008000201002F
:100070000003040700000000000000000000000072
:10008000250028002B0000000000240027002A0083
:1000900000000000230026002900040404040404D6
:1000A0000404020202020202030303030303010227
:1000B00004081020408001020408102001020408F6
:1000C0001020A80A7D0A11241FBECFEFD8E0DEBFA2
:1000D000CDBF12E0A0E0B1E0E6E6FEE102C005908F
:1000E0000D92AE3BB107D9F723E0AEEBB2E001C011
:1000F0001D92A33EB207E1F710E0C2E6D0E004C0D3
:100100002197FE010E94140DC136D107C9F70E9444
:1001100041070C94260F0C940000FC01538D448D74
:10012000252F30E0842F90E0821B930B541710F0A2
:10013000CF96089501970895FC01918D828D9817AF
:1001400061F0828DDF01A80FB11D5D968C91928DBB
:100150009F5F9F73928F90E008958FEF9FEF0895B8
:10016000FC01918D828D981731F0828DE80FF11D81
:10017000858D90E008958FEF9FEF0895FC01918D9C
:10018000228D892F90E0805C9F4F821B91098F7395
:10019000992708958BE093E00E94BE0021E0892B0F
:1001A00009F420E0822F0895FC01848DDF01A80F5F
:1001B000B11DA35ABF4F2C91848D90E001968F738F
:1001C0009927848FA689B7892C93A089B1898C91AE
:1001D00080648C93938D848D981306C00288F38974
:1001E000E02D80818F7D80830895EF92FF920F93A1
:1001F0001F93CF93DF93EC0181E0888F9B8D8C8DD3
:10020000981305C0E889F989808185FD24C0F62E00
:100210000B8D10E00F5F1F4F0F731127E02E8C8D99
:10022000E8120CC00FB607FCFACFE889F989808183
:1002300085FFF5CFCE010E94D400F1CF8B8DFE015A
:10024000E80FF11DE35AFF4FF0820B8FEA89FB891B
:100250008081806207C0EE89FF896083E889F9891F
:1002600080818064808381E090E0DF91CF911F9155
:100270000F91FF90EF900895CF93DF93EC01888D5D
:100280008823C9F0EA89FB89808185FD05C0A8899A
:10029000B9898C9186FD0FC00FB607FCF5CF808120
:1002A00085FFF2CFA889B9898C9185FFEDCFCE016A
:1002B0000E94D400E7CFDF91CF91089580E090E0D5
:1002C000892B29F00E94CA0081110C940000089526
:1002D0003FB7F8948091030390910403A091050324
:1002E000B091060326B5A89B05C02F3F19F00196D3
:1002F000A11DB11D3FBFBA2FA92F982F8827820FAC
:10030000911DA11DB11DBC01CD0142E0660F771FFB
:10031000881F991F4A95D1F70895209109033091BC
:100320000A032817390771F4909107038091080395
:10033000981741F0E0910703F0E0E254FD4F80810F
:1003400090E008958FEF9FEF089508951F93CF9346
:10035000DF93DC015C962D913C915D972115310571
:1003600039F481E090E013969C938E9312973DC0F0
:100370005196ED91FC91529750969C915097892FF0
:1003800080951FB75E964C915E9741FB772770F979
:1003900041FD6095F8944081772311F0492B01C00D
:1003A00048234083E9012197F1F748E0508160FF3D
:1003B00002C0592B01C058235083E9012197F1F75E
:1003C0006695415099F7772321F0908189238083A6
:1003D00003C08081982B90831FBF5C968D919C9168
:1003E0005D970197F1F721E030E0C901DF91CF91EE
:1003F0001F9108952091090330910A0328173907A6
:1004000071F4809108032091070390E0805C9F4F76
:10041000821B910960E470E00E94EC0C089580E07A
:1004200090E008952091090330910A0328173907B5
:10043000B9F49091070380910803981789F0E0912F
:100440000703F0E0E254FD4F80812091070330E084
:100450002F5F3F4F2F7333272093070390E00895BA
:100460008FEF9FEF0895089580E090E00895FC01DC
:10047000448155816081718184EB93E00E94B904CD
:1004800042E050E069E272E084EB93E00C94B9043E
:100490000E94110FCF92DF92EF92FF92CF93DF93E2
:1004A000CDB7DEB728970FB6F894DEBF0FBECDBF2D
:1004B0006C016BE272E0CE0101960E9408072FB733
:1004C000F8948091FF0290910003A0910103B091F4
:1004D00002032FBF0D2C000CEE08FF08C80ED91E1A
:1004E000EA1EFB1E2FB7F8948091FF029091000343
:1004F000A0910103B09102032FBF8C159D05AE059D
:10050000BF05B0F484EB93E00E94FA01892B51F30C
:1005100084EB93E00E9412028F83188641E050E042
:10052000BE01695F7F4FCE0101960E940906EACFA6
:100530004D815E8169817A818BE093E00E94B904EC
:10054000CE0101960E94790628960FB6F894DEBF78
:100550000FBECDBFDF91CF91FF90EF90DF90CF9096
:100560000895CF93DF93CDB7DEB72C970FB6F894ED
:10057000DEBF0FBECDBF6EE271E0CE0101960E94DC
:100580000807CE0101960E943702CE0101960E9413
:10059000790680ED97E00E944A0265E371E0CE01A2
:1005A00001960E940807CE0101960E943702CE01F3
:1005B00001960E94790680EA9FE00E944A0260E864
:1005C00075E280E090E00E943E0565E471E0CE01B6
:1005D00001960E940807CE0101960E943702CE01C3
:1005E00001960E94790688E893E10E944A0261E53B
:1005F00071E0CE0101960E94080769ED73E0CE011B
:1006000001960E94500663E172E00E94370663ED96
:1006100073E00E94500665E172E00E943706BC015B
:10062000CE0107960E94EE06CE0107960E94370281
:10063000CE0107960E947906CE0101960E947906A6
:1006400080E197E20E944A026CE571E0CE010196DA
:100650000E940807CE0101960E943702CE01019642
:100660000E94790688EE93E00E944A0265E671E0F6
:10067000CE0101960E940807CE0101960E94370222
:10068000CE0101960E94790688EE93E00E944A020C
:100690002C960FB6F894DEBF0FBECDBFDF91CF9181
:1006A00008951F920F920FB60F9211242F933F932C
:1006B0004F935F936F937F938F939F93AF93BF936A
:1006C000EF93FF938BE093E00E94D400FF91EF91B2
:1006D000BF91AF919F918F917F916F915F914F915A
:1006E0003F912F910F900FBE0F901F9018951F9262
:1006F0000F920FB60F9211242F938F939F93EF9326
:10070000FF93E0911B03F0911C038081E091210392
:10071000F091220382FD12C09081809124038F5FAB
:100720008F7320912503821751F0E0912403F0E0AC
:10073000E55FFC4F958F8093240301C08081FF917A
:10074000EF919F918F912F910F900FBE0F901F905F
:10075000189590E0FC01E859FF4F3491FC01E255F7
:10076000FF4F2491FC01E656FF4FE491EE2309F47C
:100770003BC0332339F1333091F038F43130A9F0F4
:10078000323001F584B58F7D12C0373091F03830AA
:10079000A1F03430B9F4809180008F7D03C0809146
:1007A00080008F77809380000DC084B58F7784BDE3
:1007B00009C08091B0008F7703C08091B0008F7D19
:1007C0008093B000F0E0EE0FFF1FE458FF4FA591BB
:1007D000B4918FB7F894EC91611103C020952E234A
:1007E00001C02E2B2C938FBF08951F920F920FB62E
:1007F0000F9211242F933F938F939F93AF93BF93A7
:100800008091FF0290910003A0910103B091020337
:100810003091FE0223E0230F2D3720F40196A11D15
:10082000B11D05C026E8230F0296A11DB11D20931E
:10083000FE028093FF0290930003A0930103B09304
:1008400002038091030390910403A0910503B091EA
:1008500006030196A11DB11D809303039093040329
:10086000A0930503B0930603BF91AF919F918F9121
:100870003F912F910F900FBE0F901F9018951F92D0
:100880000F920FB60F9211242F933F934F935F93C4
:100890006F937F938F939F93AF93BF93EF93FF9348
:1008A000E0910903F0910A03309709F451C0968D45
:1008B000A685B785858591FF04C09C91892329F47D
:1008C00047C09C91892309F043C0A389B4899C91B6
:1008D0008589809589238C93868997890197F1F77B
:1008E000608D718DA685B785558538E020E0CB01F8
:1008F0000197F1F7822F90E095958795282F4C91DD
:10090000452309F02068315091F7868D81FD2095AF
:100910008091080390E001968F7399273091070327
:10092000381749F0A0910803B0E0A254BD4F2C93B2
:100930008093080303C0868D8160868F828D938D9E
:100940000197F1F7A389B4899C918589892B8C93B0
:10095000FF91EF91BF91AF919F918F917F916F9197
:100960005F914F913F912F910F900FBE0F901F906D
:100970001895CF92DF92EF92FF920F931F93CF9330
:10098000DF936C017A018B01C0E0D0E0CE15DF056A
:1009900089F0D8016D918D01D601ED91FC91019006
:1009A000F081E02DC6010995892B11F47E0102C06A
:1009B0002196ECCFC701DF91CF911F910F91FF904E
:1009C000EF90DF90CF9008950F931F93CF93DF9315
:1009D000EC0188819981009729F02A813B812617B3
:1009E000370788F48B016F5F7F4F0E94470E009797
:1009F00061F0998388831B830A832C813D81232B9B
:100A000011F4FC01108281E001C080E0DF91CF9100
:100A10001F910F910895CF93DF93EC018881998105
:100A2000009711F00E94AF0D198218821D821C825E
:100A30001B821A82DF91CF910895EF92FF920F935C
:100A40001F93CF93DF93EC017B018A01BA010E94CF
:100A5000E404811104C0CE010E940B0507C01D8370
:100A60000C83B701888199810E941F0FCE01DF910D
:100A7000CF911F910F91FF90EF9008959B01AC01D2
:100A80001092CF031092CE031092CD031092CC039C
:100A90001092CB031092CA0360E079E08DE390E0FE
:100AA0000E94520CF9012430310518F0C901039756
:100AB00002C081E090E09093D1038093D0039091A5
:100AC000C003963108F075C0B90176956795643119
:100AD000710518F06351710902C061E070E0709314
:100AE000CB036093CA03369720F0B90165507109B2
:100AF00002C061E070E07093CD036093CC03B90154
:100B0000660F771F260F371F369527953695279541
:100B10002D30310518F02C50310902C021E030E0B1
:100B20003093CF032093CE0320916800983050F08B
:100B300031E09E3008F430E081E001C0880F3A9542
:100B4000EAF701C084E0822B80936800983038F087
:100B50009E3040F0963148F020E030E008C02DE6AD
:100B600030E005C02BE630E002C02CE630E03093E8
:100B7000C8032093C703983030F481E001C0880F88
:100B80009A95EAF70EC0292F30E09E3018F42850CD
:100B9000310902C02E50310981E001C0880F2A9529
:100BA000EAF78093C9038091D0039091D103019714
:100BB000F1F78091CE039091CF03892B49F1E09119
:100BC0000903F0910A0383E0E43BF80709F1309749
:100BD00039F0A389B4899C918589809589238C9368
:100BE0008091D2038E7F8093D203109208031092DB
:100BF000070384EB93E090930A0380930903E09149
:100C0000C703F091C80390818091C903892B808329
:100C10000895EF92FF920F931F93CF93DF93FC0100
:100C2000248135816115710511F480E019C04115E9
:100C30005105A9F07B01EC018A01020F131FB801D5
:100C40000E94E404882389F3288139818C819D8165
:100C5000B701820F931F0E941F0F1D830C8381E039
:100C6000DF91CF911F910F91FF90EF900895CF9357
:100C7000DF93EC016115710561F0FB01019000202B
:100C8000E9F73197AF01461B570B0E940906811106
:100C900003C0CE010E940B05CE01DF91CF910895D4
:100CA000CF93DF93EC01FB01448155816081718119
:100CB0000E940906811103C0CE010E940B05CE01DE
:100CC000DF91CF9108956115710551F0FB010190FD
:100CD0000020E9F73197AF01461B570B0C9409062A
:100CE00080E00895FB0144815581608171810C94FD
:100CF0000906FC01808191810C94AF0DEF92FF9267
:100D00000F931F93CF93DF93CDB7DEB761970FB6E5
:100D1000F894DEBF0FBECDBF8C01CB01F80111826C
:100D20001082138212821582148250E09E012F5F7E
:100D30003F4F7901B9010E941D0CF701019000207D
:100D4000E9F73197AF014E195F09B701C8010E9459
:100D50001D0561960FB6F894DEBF0FBECDBFDF91C3
:100D6000CF911F910F91FF90EF900895EF92FF9216
:100D70000F931F93CF93DF93CDB7DEB762970FB674
:100D8000F894DEBF0FBECDBF8C01CB01F8011182FC
:100D90001082138212821582148250E09E012F5F0E
:100DA0003F4F7901B9010E94070CF7010190002023
:100DB000E9F73197AF014E195F09B701C8010E94E9
:100DC0001D0562960FB6F894DEBF0FBECDBFDF9152
:100DD000CF911F910F91FF90EF900895FB01DC01DF
:100DE00011961C921E9213961C921E9212971596A3
:100DF0001C921E9214978617970749F060817181A3
:100E00006115710521F0448155810C941D050895EB
:100E1000FC011182108213821282158214826115E4
:100E2000710551F0FB0101900020E9F73197AF0106
:100E3000461B570B0C941D050895CF93DF9300D0EC
:100E400000D0CDB7DEB7611571058105910579F048
:100E50009B01AC0169833A834B835C830E94F90B4D
:100E600029813A814B815C810E94520C03C060E071
:100E700070E0CB010F900F900F900F90DF91CF910A
:100E80000895CF93DF93CDB7DEB7EC970FB6F89404
:100E9000DEBF0FBECDBF789484B5826084BD84B5BB
:100EA000816084BD85B5826085BD85B5816085BD65
:100EB00080916E00816080936E001092810080911D
:100EC00081008260809381008091810081608093A5
:100ED0008100809180008160809380008091B100CA
:100EE00084608093B1008091B00081608093B000F5
:100EF00080917A00846080937A0080917A00826089
:100F000080937A0080917A00816080937A0080914A
:100F10007A00806880937A001092C100E0911B03F0
:100F2000F0911C0382E08083E0911703F091180395
:100F30001082E0911903F0911A038FEC80831092D4
:100F40002303E0911F03F091200386E08083E0916A
:100F50001D03F0911E03808180618083E0911D0359
:100F6000F0911E03808188608083E0911D03F091E1
:100F70001E03808180688083E0911D03F0911E0331
:100F800080818F7D808360E072EC81E090E00E9440
:100F90003E050E94B10280ED97E00E944A020E9445
:100FA000B10280ED97E00E944A0262E370E080E0C7
:100FB00090E00E941D076B017C0164E670E080E018
:100FC00090E00E941D0769AB7AAB8BAB9CAB62E3F0
:100FD00070E080E090E00E941D072B013C016FEF64
:100FE00070E080E090E00E941D074B015C016FEF14
:100FF00070E080E090E00E941D076DAB7EAB8FAB90
:1010000098AF6FEF70E080E090E00E941D0769AF3D
:101010007AAF8BAF9CAF61E771E0CE018B960E94F7
:10102000080763E771E0CE018B960E94630663E8D0
:1010300071E0CE018B960E94630661E771E0CE01FC
:101040008B960E9463064AE0B601CE0101960E948B
:10105000B6066CE871E0CE0107960E940807BE0153
:101060006F5F7F4FCE0107960E94500668E172E0E5
:101070000E943706BC01CE018B960E947206CE01FB
:1010800007960E947906CE0101960E9479064AE0F1
:10109000B601CE0101960E94B6066CE871E0CE0161
:1010A00007960E940807BE016F5F7F4FCE0107962B
:1010B0000E94500668E172E00E943706BC01CE0132
:1010C0008B960E947206CE0107960E947906CE0189
:1010D00001960E9479064AE069A97AA9CE01019693
:1010E0000E94B6066CE971E0CE0107960E940807DF
:1010F000BE016F5F7F4FCE0107960E94500668E1E8
:1011000072E00E943706BC01CE018B960E947206E7
:10111000CE0107960E947906CE0101960E947906BB
:101120004AE0B201CE0101960E94B60669EA71E07A
:10113000CE0107960E940807BE016F5F7F4FCE0168
:1011400007960E94500668E172E00E943706BC01D3
:10115000CE018B960E947206CE0107960E947906F8
:10116000CE0101960E9479064AE0B401CE010196B3
:101170000E94B60666EB71E0CE0107960E94080752
:10118000BE016F5F7F4FCE0107960E94500668E157
:1011900072E00E943706BC01CE018B960E94720657
:1011A000CE0107960E947906CE0101960E9479062B
:1011B0004AE06DA97EA9CE0101960E94B60665ECB3
:1011C00071E0CE0107960E940807BE016F5F7F4F56
:1011D000CE0107960E94500668E172E00E94370631
:1011E000BC01CE018B960E947206CE0107960E942A
:1011F0007906CE0101960E9479064AE069AD7AAD82
:10120000CE0101960E94B6066EEC71E0CE01079603
:101210000E940807BE016F5F7F4FCE0107960E94B4
:101220005006BC01CE018B960E947206CE01079635
:101230000E947906CE0101960E9479066DED71E05B
:10124000CE018B960E9463066DED71E0CE018B9608
:101250000E946306BE01655D7F4FCE0149960E94E4
:10126000EE066FED71E0CE014F960E94080760EF29
:1012700071E0CE0185960E94080761E072E0CE0120
:1012800007960E9408076EEA73E0CE0107960E9457
:10129000500667E172E00E94370668EA73E00E9438
:1012A0005006BC01CE0101960E94EE06CE010196C9
:1012B0000E943702CE0101960E947906CE01079660
:1012C0000E94790688EE93E00E944A026AE172E089
:1012D000CE0101960E940807BE016B5D7F4FCE01D3
:1012E00001960E94500660E272E00E943706BC013F
:1012F000CE0143960E94EE06CE0101960E94790629
:101300006CE272E0CE0101960E9408076EEA73E07B
:10131000CE0101960E94500663E372E00E943706F8
:1013200068EA73E00E94500669E272E00E943706A4
:10133000BC01CE0143960E947206CE0101960E9426
:10134000790665E372E0CE0101960E940807BE01AE
:10135000615E7F4FCE0101960E94500669E272E005
:101360000E943706BC01CE0143960E947206CE0150
:1013700001960E9479066D8D7E8D4AE0CE01019620
:101380000E947E0664E472E0CE0107960E94080780
:10139000BE016F5F7F4FCE0107960E94500669E243
:1013A00072E00E943706BC01CE0143960E9472068D
:1013B000CE0107960E947906CE0101960E94790619
:1013C00069E272E0CE0143960E946306BE01675E49
:1013D0007F4FCE0143960E9472066F89788D4AE056
:1013E000CE0107960E947E0665E572E0CE010D965D
:1013F0000E940807BE01695F7F4FCE010D960E94D3
:101400005006BC01CE0101960E94EE06CE01019667
:101410000E943702CE0101960E947906CE010D96F8
:101420000E947906CE0107960E94790680ED97E02A
:101430000E944A02BE016D5E7F4FCE0101960E945E
:10144000EE06CE0101960E943702CE0101960E945F
:10145000790680ED97E00E944A0263E672E0CE01D1
:1014600001960E940807CE0101960E943702CE0124
:1014700001960E94790688EE93E00E944A02CE010E
:1014800043960E947906CE0185960E947906CE0188
:101490004F960E947906CE0149960E9479060E94D5
:1014A00068014B015C0180E2C82E8EE4D82EE12C4D
:1014B000F12C0E946801DC01CB0188199909AA0965
:1014C000BB09883E9340A105B10558F021E0C21A3E
:1014D000D108E108F10888EE880E83E0981EA11C6F
:1014E000B11CC114D104E104F10419F7CE018B96AB
:1014F0000E9479060E945E0152CD88EA93E00E9424
:1015000079068EEA93E00E94790680E291E090935A
:10151000B5038093B4038091090390910A03845B1F
:10152000934071F4E091C703F091C80390818091DA
:10153000C90380958923808310920A0310920903BE
:1015400083ED93E00E94790689ED93E00C9479068F
:10155000CF92DF92EF92FF92CF93DF9310920E0320
:1015600010920D0368EEC62E63E0D62EE12CF12C0E
:10157000C0920F03D0921003E0921103F092120375
:101580008EE091E090930C0380930B0385EC90E048
:10159000909318038093170384EC90E090931A03C0
:1015A0008093190380EC90E090931C0380931B03BD
:1015B00081EC90E090931E0380931D0382EC90E0F9
:1015C0009093200380931F0386EC90E09093220376
:1015D0008093210310922403109225031092260376
:1015E0001092270361E772E089ED93E00E940807FB
:1015F0006EE772E083ED93E00E9408071092B70354
:101600001092B603C092B803D092B903E092BA0325
:10161000F092BB0380E291E09093B5038093B40312
:101620001092CB031092CA031092CD031092CC03F8
:101630001092CF031092CE031092D1031092D003D8
:101640006091D2036E7F6D7F6093D2036695617067
:1016500081E068278BE00E94A903E9EBF0E0249188
:10166000E5EAF0E08491882399F090E0880F991FD3
:10167000FC01EA57FF4FA591B491FC01E458FF4FDC
:10168000859194918FB7F894EC91E22BEC938FBFF6
:10169000E9EBF0E0E491E093C403E5EAF0E0E491E3
:1016A000F0E0EE0FFF1FE458FF4F85919491909367
:1016B000C6038093C503E8EBF0E02491E4EAF0E090
:1016C00084918823C1F090E0880F991FFC01EA57AC
:1016D000FF4FC591D491FC01E458FF4FA591B491FF
:1016E0009FB7F8948881E22FE0958E2388838C91B0
:1016F000E823EC939FBF8091D20381FD04C061E099
:101700008AE00E94A9038AE08093C003E8EBF0E03E
:10171000E491E093C103E4EAF0E0E491F0E0EE0F3D
:10172000FF1FE057FF4F859194919093C3038093DF
:10173000C20369E972E08EEA93E00E9408076BEB4E
:1017400072E088EA93E0DF91CF91FF90EF90DF9015
:10175000CF900C9408078F929F92AF92BF92CF9236
:10176000DF92EF92FF92CF93DF93EC016881798152
:101770008A819B81611571058105910521F464E2DF
:1017800079ED8BE597E02DE133EF41E050E00E94E9
:10179000520C49015A019B01AC01A7EAB1E40E9435
:1017A000710C6B017C01ACEEB4EFA50194010E94B9
:1017B0007F0CDC01CB018C0D9D1DAE1DBF1DB7FF45
:1017C00003C00197A109B04888839983AA83BB838A
:1017D000BC01CD019F77DF91CF91FF90EF90DF901B
:1017E000CF90BF90AF909F908F9008950E94AB0BC9
:1017F000089580E091E00E94AB0B08956093000192
:101800007093010180930201909303010895453282
:10181000510520F4423010F00C94120CFB011082A0
:10182000CB010895BB274A3031F4992322F4BDE25D
:10183000909581959F4F0C94290C4532510520F4C9
:10184000423010F00C94280CFB011082CB0108955B
:10185000BB27FB015527AA27880F991FAA1FA4178A
:1018600010F0A41B83955051B9F7A05DAA3308F07E
:10187000A95DA193009779F7B111B1931192CB01B2
:101880000C94420CDC01FC01672F71917723E1F786
:10189000329704C07C916D9370836291AE17BF073D
:1018A000C8F30895052E97FB1EF400940E94690C5E
:1018B00057FD07D00E94BB0C07FC03D04EF40C94DC
:1018C000690C50954095309521953F4F4F4F5F4F94
:1018D000089590958095709561957F4F8F4F9F4F9C
:1018E00008950E94DD0CA59F900DB49F900DA49FBC
:1018F000800D911D11240895B7FF0C94710C0E9466
:10190000710C821B930B08952F923F924F925F921E
:101910006F927F928F929F92AF92BF92CF92DF92FF
:10192000EF92FF920F931F93CF93DF93CDB7DEB764
:10193000CA1BDB0B0FB6F894DEBF0FBECDBF0994F8
:101940002A88398848885F846E847D848C849B844F
:10195000AA84B984C884DF80EE80FD800C811B815D
:10196000AA81B981CE0FD11D0FB6F894DEBF0FBE8C
:10197000CDBFED010895A1E21A2EAA1BBB1BFD01EC
:101980000DC0AA1FBB1FEE1FFF1FA217B307E4075E
:10199000F50720F0A21BB30BE40BF50B661F771FB6
:1019A000881F991F1A9469F7609570958095909596
:1019B0009B01AC01BD01CF010895A29FB001B39F6F
:1019C000C001A39F700D811D1124911DB29F700D48
:1019D000811D1124911D089597FB072E16F4009484
:1019E00007D077FD09D00E94000D07FC05D03EF41A
:1019F000909581959F4F0895709561957F4F0895BB
:101A0000AA1BBB1B51E107C0AA1FBB1FA617B70724
:101A100010F0A61BB70B881F991F5A95A9F7809540
:101A20009095BC01CD010895EE0FFF1F0590F49134
:101A3000E02D0994CF93DF938230910510F482E07A
:101A400090E0E091E103F091E20320E030E0C0E0BB
:101A5000D0E0309711F14081518148175907C0F00B
:101A60004817590761F482819381209719F09B836D
:101A70008A832BC09093E2038093E10326C0211553
:101A8000310519F04217530718F49A01BE01DF011E
:101A9000EF010280F381E02DDCCF2115310509F142
:101AA000281B390B2430310590F412968D919C91AE
:101AB00013976115710521F0FB019383828304C0A4
:101AC0009093E2038093E103FD01329644C0FD014F
:101AD000E20FF31F81939193225031092D933C9390
:101AE0003AC02091DF033091E003232B41F4209191
:101AF0000601309107013093E0032093DF0320912A
:101B00000401309105012115310541F42DB73EB78F
:101B10004091080150910901241B350BE091DF032E
:101B2000F091E003E217F307A0F42E1B3F0B2817F8
:101B3000390778F0AC014E5F5F4F2417350748F046
:101B40004E0F5F1F5093E0034093DF038193919307
:101B500002C0E0E0F0E0CF01DF91CF9108950F9354
:101B60001F93CF93DF93009709F48CC0FC01329749
:101B7000138212820091E1031091E2030115110515
:101B800081F420813181820F931F2091DF033091F6
:101B9000E0032817390779F5F093E003E093DF03BA
:101BA00071C0D80140E050E0AE17BF0750F4129664
:101BB0002D913C911397AD012115310509F1D90102
:101BC000F3CF9D01DA013383228360817181860F17
:101BD000971F8217930769F4EC0128813981260F3A
:101BE000371F2E5F3F4F318320838A819B819383F0
:101BF0008283452B29F4F093E203E093E10342C092
:101C00001396FC93EE931297ED01499159919E0121
:101C1000240F351FE217F30771F480819181840F3F
:101C2000951F029611969C938E93828193811396B1
:101C30009C938E931297E0E0F0E0D80112968D917C
:101C40009C911397009719F0F8018C01F6CF8D91B4
:101C50009C9198012E5F3F4F820F931F2091DF03CD
:101C60003091E0032817390769F4309729F410926E
:101C7000E2031092E10302C0138212821093E00388
:101C80000093DF03DF91CF911F910F910895A0E0A2
:101C9000B0E0EDE4FEE00C94880CEC01009721F438
:101CA000CB010E941A0DB8C0FC01E60FF71F9C0182
:101CB00022503109E217F30708F4ACC0D9010D91A5
:101CC0001C91119706171707B0F00530110508F49D
:101CD0009FC0C80104978617970708F499C002505F
:101CE0001109061B170B019311936D937C93CF0180
:101CF0000E94AF0D8DC05B01A01AB10A4C01800E8D
:101D0000911EA091E103B091E20340E050E0E12C8C
:101D1000F12C109709F44AC0A815B905D1F56D90BA
:101D20007C901197630182E0C80ED11CCA14DB04B9
:101D300080F1A3014A195B096A0182E0C80ED11C37
:101D40001296BC9012971396AC91B5E0CB16D104C5
:101D500040F0B282A38351834083D9016D937C9379
:101D60000AC00E5F1F4FC301800F911FF9019183BD
:101D70008083EB2DFA2FE114F10431F0D701139693
:101D8000FC93EE93129744C0F093E203E093E103D7
:101D90003FC08D919C9111974817590708F4AC01E9
:101DA0007D0112960D90BC91A02DB3CF8091DF03E1
:101DB0009091E00388159905E1F446175707C8F498
:101DC0008091040190910501009741F48DB79EB771
:101DD0004091080150910901841B950BE817F90700
:101DE000C8F4F093E003E093DF03F90171836083AB
:101DF0000FC0CB010E941A0D7C01009759F0A80179
:101E0000BE010E94160FCE010E94AF0DC70104C093
:101E1000CE0102C080E090E0CDB7DEB7EEE00C94DA
:101E2000A40C81E090E0F8940C94260FFB01DC01F7
:101E300002C001900D9241505040D8F70895FB0127
:101E4000DC0101900D920020E1F7089510E0C2E658
:101E5000D0E004C0FE010E94140D2196C336D107C4
:061E6000C9F7F894FFCF62
:101E6600010000000000E303800000000000F50010
:101E7600B9048D003C01BE009C00B00000000000CB
:101E8600A601B9043402A501FA0112028D014154DA
:101E96002B5253540041542B43494F424155443D24
:101EA600393630300041542B43574D4F44453D3170
:101EB6000041542B43574A41503D220041542B4385
:101EC600494653520041542B4349504D55583D31D4
:101ED600007B002273746174696F6E4964223A2034
:101EE600302C002264617461223A20002254656D10
:101EF6007065726174757265223A20002248756DAC
:101F06006964697479223A20002250726573737588
:101F16007265223A2000224169725175616C6974BA
:101F260079223A2000225261696E223A200022422A
:101F360072696768746E657373223A20007D00616A
:101F460070706C69636174696F6E2F6A736F6E006F
:101F56002F6170692F776561746865726461746159
:101F66000041542B43495053544152543D342C2282
:101F7600544350222C2200222C00504F5354200050
:101F860020485454502F312E310D0A00486F737477
:101F96003A20003A00436F6E74656E742D54797062
:101FA600653A2000436F6E74656E742D4C656E67DE
:101FB60074683A200041542B43495053454E443DE2
:101FC600342C0041542B434950434C4F53453D3428
:101FD600004C697665626F782D363445380039369F
:101FE600414434354445364431373236363435414A
:101FF6004541333941373633007765617468657218
:102006002D73746174696F6E2E617A75726577656A
:0E2016006273697465732E6E65740038300055
:107E0000112484B714BE81FFF0D085E080938100F7
:107E100082E08093C00088E18093C10086E0809377
:107E2000C20080E18093C4008EE0C9D0259A86E02C
:107E300020E33CEF91E0309385002093840096BBD3
:107E4000B09BFECF1D9AA8958150A9F7CC24DD24C4
:107E500088248394B5E0AB2EA1E19A2EF3E0BF2EE7
:107E6000A2D0813461F49FD0082FAFD0023811F036
:107E7000013811F484E001C083E08DD089C08234E0
:107E800011F484E103C0853419F485E0A6D080C0E4
:107E9000853579F488D0E82EFF2485D0082F10E0AE
:107EA000102F00270E291F29000F111F8ED06801E7
:107EB0006FC0863521F484E090D080E0DECF843638
:107EC00009F040C070D06FD0082F6DD080E0C81688
:107ED00080E7D80618F4F601B7BEE895C0E0D1E017
:107EE00062D089930C17E1F7F0E0CF16F0E7DF06D8
:107EF00018F0F601B7BEE89568D007B600FCFDCFD4
:107F0000A601A0E0B1E02C9130E011968C91119780
:107F100090E0982F8827822B932B1296FA010C0160
:107F200087BEE89511244E5F5F4FF1E0A038BF0790
:107F300051F7F601A7BEE89507B600FCFDCF97BE46
:107F4000E89526C08437B1F42ED02DD0F82E2BD052
:107F50003CD0F601EF2C8F010F5F1F4F84911BD097
:107F6000EA94F801C1F70894C11CD11CFA94CF0C13
:107F7000D11C0EC0853739F428D08EE10CD085E9AC
:107F80000AD08FE07ACF813511F488E018D01DD067
:107F900080E101D065CF982F8091C00085FFFCCF94
:107FA0009093C60008958091C00087FFFCCF809118
:107FB000C00084FD01C0A8958091C6000895E0E648
:107FC000F0E098E1908380830895EDDF803219F02E
:107FD00088E0F5DFFFCF84E1DECF1F93182FE3DFCA
:107FE0001150E9F7F2DF1F91089580E0E8DFEE27F6
:047FF000FF270994CA
:027FFE00040479
:0400000300007E007B
:00000001FF