:100000000C9463000C948B000C948B000C949F0355
:100010000C949F030C949F030C948B000C948B0006
:100020000C948B000C948B000C948B000C948B0024
:100030000C948B000C948B000C948B000C948B0014
:100040000C9455030C948B000C94D7020C94B102C1
:100050000C948B000C948B000C948B000C948B00F4
:100060000C948B000C948B0000000008000201002F
:100070000003040700000000000000000000000072
:10008000250028002B0000000000240027002A0083
:1000900000000000230026002900040404040404D6
:1000A0000404020202020202030303030303010227
:1000B00004081020408001020408102001020408F6
:1000C00010207F0A540A11241FBECFEFD8E0DEBFF4
:1000D000CDBF12E0A0E0B1E0E4E1FEE102C0059096
:1000E0000D92A23AB107D9F723E0A2EAB2E001C02B
:1000F0001D92A73CB207E1F710E0C2E6D0E004C0D1
:100100002197FE010E94EB0CC136D107C9F70E946E
:10011000A1060C94FD0E0C940000FC01538D448D3F
:10012000252F30E0842F90E0821B930B541710F0A2
:10013000CF96089501970895FC01918D828D9817AF
:1001400061F0828DDF01A80FB11D5D968C91928DBB
:100150009F5F9F73928F90E008958FEF9FEF0895B8
:10016000FC01918D828D981731F0828DE80FF11D81
:10017000858D90E008958FEF9FEF0895FC01918D9C
:10018000228D892F90E0805C9F4F821B91098F7395
:10019000992708958FEE92E00E94BE0021E0892BFE
:1001A00009F420E0822F0895FC01848DDF01A80F5F
:1001B000B11DA35ABF4F2C91848D90E001968F738F
:1001C0009927848FA689B7892C93A089B1898C91AE
:1001D00080648C93938D848D981306C00288F38974
:1001E000E02D80818F7D80830895EF92FF920F93A1
:1001F0001F93CF93DF93EC0181E0888F9B8D8C8DD3
:10020000981305C0E889F989808185FD24C0F62E00
:100210000B8D10E00F5F1F4F0F731127E02E8C8D99
:10022000E8120CC00FB607FCFACFE889F989808183
:1002300085FFF5CFCE010E94D400F1CF8B8DFE015A
:10024000E80FF11DE35AFF4FF0820B8FEA89FB891B
:100250008081806207C0EE89FF896083E889F9891F
:1002600080818064808381E090E0DF91CF911F9155
:100270000F91FF90EF900895CF93DF93EC01888D5D
:100280008823C9F0EA89FB89808185FD05C0A8899A
:10029000B9898C9186FD0FC00FB607FCF5CF808120
:1002A00085FFF2CFA889B9898C9185FFEDCFCE016A
:1002B0000E94D400E7CFDF91CF91089580E090E0D5
:1002C000892B29F00E94CA0081110C940000089526
:1002D0003FB7F8948091E7029091E802A091E9027B
:1002E000B091EA0226B5A89B05C02F3F19F00196F0
:1002F000A11DB11D3FBFBA2FA92F982F8827820FAC
:10030000911DA11DB11DBC01CD0142E0660F771FFB
:10031000881F991F4A95D1F708952091ED023091D9
:10032000EE022817390771F49091EB028091EC02EC
:10033000981741F0E091EB02F0E0EE55FD4F80811F
:1003400090E008958FEF9FEF089508951F93CF9346
:10035000DF93DC015C962D913C915D972115310571
:1003600039F481E090E013969C938E9312973DC0F0
:100370005196ED91FC91529750969C915097892FF0
:1003800080951FB75E964C915E9741FB772770F979
:1003900041FD6095F8944081772311F0492B01C00D
:1003A00048234083E9012197F1F748E0508160FF3D
:1003B00002C0592B01C058235083E9012197F1F75E
:1003C0006695415099F7772321F0908189238083A6
:1003D00003C08081982B90831FBF5C968D919C9168
:1003E0005D970197F1F721E030E0C901DF91CF91EE
:1003F0001F9108952091ED023091EE0228173907E0
:1004000071F48091EC022091EB0290E0805C9F4FB0
:10041000821B910960E470E00E94C30C089580E0A3
:1004200090E008952091ED023091EE0228173907EF
:10043000B9F49091EB028091EC02981789F0E09169
:10044000EB02F0E0EE55FD4F80812091EB0230E0B1
:100450002F5F3F4F2F7333272093EB0290E00895D7
:100460008FEF9FEF0895089580E090E00895FC01DC
:10047000448155816081718188E993E00E9419046B
:1004800042E050E069E272E088E993E00C941904DC
:100490000E94E80ECF92DF92EF92FF92CF93DF930C
:1004A000CDB7DEB728970FB6F894DEBF0FBECDBF2D
:1004B0006C016BE272E0CE0101960E9468062FB7D4
:1004C000F8948091E3029091E402A091E502B0914A
:1004D000E6022FBF0D2C000CEE08FF08C80ED91E37
:1004E000EA1EFB1E2FB7F8948091E3029091E4027C
:1004F000A091E502B091E6022FBF8C159D05AE05D7
:10050000BF05B0F488E993E00E94FA01892B51F30A
:1005100088E993E00E9412028F83188641E050E040
:10052000BE01695F7F4FCE0101960E946905EACF47
:100530004D815E8169817A818FEE92E00E9419047B
:10054000CE0101960E94D90528960FB6F894DEBF19
:100550000FBECDBFDF91CF91FF90EF90DF90CF9096
:1005600008951F920F920FB60F9211242F933F936D
:100570004F935F936F937F938F939F93AF93BF93AB
:10058000EF93FF938FEE92E00E94D400FF91EF91E2
:10059000BF91AF919F918F917F916F915F914F919B
:1005A0003F912F910F900FBE0F901F9018951F92A3
:1005B0000F920FB60F9211242F938F939F93EF9367
:1005C000FF93E091FF02F09100038081E091050329
:1005D000F091060382FD12C09081809108038F5F25
:1005E0008F7320910903821751F0E0910803F0E026
:1005F000E151FD4F958F8093080301C08081FF91E9
:10060000EF919F918F912F910F900FBE0F901F90A0
:10061000189590E0FC01E859FF4F3491FC01E25538
:10062000FF4F2491FC01E656FF4FE491EE2309F4BD
:100630003BC0332339F1333091F038F43130A9F035
:10064000323001F584B58F7D12C0373091F03830EB
:10065000A1F03430B9F4809180008F7D03C0809187
:1006600080008F77809380000DC084B58F7784BD24
:1006700009C08091B0008F7703C08091B0008F7D5A
:100680008093B000F0E0EE0FFF1FE458FF4FA591FC
:10069000B4918FB7F894EC91611103C020952E238B
:1006A00001C02E2B2C938FBF08951F920F920FB66F
:1006B0000F9211242F933F938F939F93AF93BF93E8
:1006C0008091E3029091E402A091E502B091E602EC
:1006D0003091E20223E0230F2D3720F40196A11D73
:1006E000B11D05C026E8230F0296A11DB11D209360
:1006F000E2028093E3029093E402A093E502B093B8
:10070000E6028091E7029091E802A091E902B0919F
:10071000EA020196A11DB11D8093E7029093E802C1
:10072000A093E902B093EA02BF91AF919F918F919C
:100730003F912F910F900FBE0F901F9018951F9211
:100740000F920FB60F9211242F933F934F935F9305
:100750006F937F938F939F93AF93BF93EF93FF9389
:10076000E091ED02F091EE02309709F451C0968DC0
:10077000A685B785858591FF04C09C91892329F4BE
:1007800047C09C91892309F043C0A389B4899C91F7
:100790008589809589238C93868997890197F1F7BC
:1007A000608D718DA685B785558538E020E0CB0139
:1007B0000197F1F7822F90E095958795282F4C911E
:1007C000452309F02068315091F7868D81FD2095F1
:1007D0008091EC0290E001968F7399273091EB02A3
:1007E000381749F0A091EC02B0E0AE55BD4F2C9304
:1007F0008093EC0203C0868D8160868F828D938DFD
:100800000197F1F7A389B4899C918589892B8C93F1
:10081000FF91EF91BF91AF919F918F917F916F91D8
:100820005F914F913F912F910F900FBE0F901F90AE
:100830001895CF92DF92EF92FF920F931F93CF9371
:10084000DF936C017A018B01C0E0D0E0CE15DF05AB
:1008500089F0D8016D918D01D601ED91FC91019047
:10086000F081E02DC6010995892B11F47E0102C0AB
:100870002196ECCFC701DF91CF911F910F91FF908F
:10088000EF90DF90CF9008950F931F93CF93DF9356
:10089000EC0188819981009729F02A813B812617F4
:1008A000370788F48B016F5F7F4F0E941E0E009701
:1008B00061F0998388831B830A832C813D81232BDC
:1008C00011F4FC01108281E001C080E0DF91CF9142
:1008D0001F910F910895CF93DF93EC018881998147
:1008E000009711F00E94860D198218821D821C82C9
:1008F0001B821A82DF91CF910895EF92FF920F939E
:100900001F93CF93DF93EC017B018A01BA010E9410
:100910004404811104C0CE010E946B0407C01D83F2
:100920000C83B701888199810E94F60ECE01DF9178
:10093000CF911F910F91FF90EF9008959B01AC0113
:100940001092B3031092B2031092B1031092B0034D
:100950001092AF031092AE0360E079E08DE390E077
:100960000E94290CF9012430310518F0C9010397C0
:1009700002C081E090E09093B5038093B40390911E
:10098000A403963108F075C0B90176956795643176
:10099000710518F06351710902C061E070E0709355
:1009A000AF036093AE03369720F0B901655071092B
:1009B00002C061E070E07093B1036093B003B901CD
:1009C000660F771F260F371F369527953695279583
:1009D0002D30310518F02C50310902C021E030E0F3
:1009E0003093B3032093B20320916800983050F005
:1009F00031E09E3008F430E081E001C0880F3A9584
:100A0000EAF701C084E0822B80936800983038F0C8
:100A10009E3040F0963148F020E030E008C02DE6EE
:100A200030E005C02BE630E002C02CE630E0309329
:100A3000AC032093AB03983030F481E001C0880F01
:100A40009A95EAF70EC0292F30E09E3018F428500E
:100A5000310902C02E50310981E001C0880F2A956A
:100A6000EAF78093AD038091B4039091B5030197A9
:100A7000F1F78091B2039091B303892B49F1E09192
:100A8000ED02F091EE0283E0E839F80709F13097C2
:100A900039F0A389B4899C918589809589238C93A9
:100AA0008091B6038E7F8093B6031092EC02109271
:100AB000EB0288E993E09093EE028093ED02E091DF
:100AC000AB03F091AC0390818091AD03892B8083BF
:100AD0000895EF92FF920F931F93CF93DF93FC0142
:100AE000248135816115710511F480E019C041152B
:100AF0005105A9F07B01EC018A01020F131FB80117
:100B00000E944404882389F3288139818C819D8146
:100B1000B701820F931F0E94F60E1D830C8381E0A4
:100B2000DF91CF911F910F91FF90EF900895CF9398
:100B3000DF93EC016115710561F0FB01019000206C
:100B4000E9F73197AF01461B570B0E9469058111E8
:100B500003C0CE010E946B04CE01DF91CF910895B6
:100B6000CF93DF93EC01FB0144815581608171815A
:100B70000E946905811103C0CE010E946B04CE0161
:100B8000DF91CF9108956115710551F0FB0101903E
:100B90000020E9F73197AF01461B570B0C9469050C
:100BA00080E00895FB0144815581608171810C943E
:100BB0006905FC01808191810C94860DEF92FF9272
:100BC0000F931F93CF93DF93CDB7DEB761970FB627
:100BD000F894DEBF0FBECDBF8C01CB01F8011182AE
:100BE0001082138212821582148250E09E012F5FC0
:100BF0003F4F7901B9010E94F40BF70101900020E9
:100C0000E9F73197AF014E195F09B701C8010E949A
:100C10007D0461960FB6F894DEBF0FBECDBFDF91A5
:100C2000CF911F910F91FF90EF900895EF92FF9257
:100C30000F931F93CF93DF93CDB7DEB762970FB6B5
:100C4000F894DEBF0FBECDBF8C01CB01F80111823D
:100C50001082138212821582148250E09E012F5F4F
:100C60003F4F7901B9010E94DE0BF701019000208E
:100C7000E9F73197AF014E195F09B701C8010E942A
:100C80007D0462960FB6F894DEBF0FBECDBFDF9134
:100C9000CF911F910F91FF90EF900895FB01DC0120
:100CA00011961C921E9213961C921E9212971596E4
:100CB0001C921E9214978617970749F060817181E4
:100CC0006115710521F0448155810C947D040895CE
:100CD000FC01118210821382128215821482611526
:100CE000710551F0FB0101900020E9F73197AF0148
:100CF000461B570B0C947D040895CF93DF9300D0CF
:100D000000D0CDB7DEB7611571058105910579F089
:100D10009B01AC0169833A834B835C830E94D00BB7
:100D200029813A814B815C810E94290C03C060E0DB
:100D300070E0CB010F900F900F900F90DF91CF914B
:100D40000895CF93DF93CDB7DEB7C054D1090FB666
:100D5000F894DEBF0FBECDBF789484B5826084BDA9
:100D600084B5816084BD85B5826085BD85B58160AF
:100D700085BD80916E00816080936E00109281002D
:100D800080918100826080938100809181008160E8
:100D900080938100809180008160809380008091A9
:100DA000B10084608093B1008091B0008160809335
:100DB000B00080917A00846080937A0080917A00FC
:100DC000826080937A0080917A00816080937A00BB
:100DD00080917A00806880937A001092C100E0913F
:100DE000FF02F091000382E08083E091FB02F0912A
:100DF000FC021082E091FD02F091FE028FEC8083F4
:100E000010920703E0910303F091040386E08083CE
:100E1000E0910103F0910203808180618083E09181
:100E20000103F0910203808188608083E0910103D7
:100E3000F0910203808180688083E0910103F0914A
:100E4000020380818F7D808360E072EC81E090E01E
:100E50000E949E046EE271E0CE0101967C010E9428
:100E60006806C7010E943702C7010E94D90580EDBC
:100E700097E00E944A0265E371E0C7010E9468069C
:100E8000C7010E943702C7010E94D90580EA9FE08E
:100E90000E944A0260E875E280E090E00E949E04B1
:100EA00065E471E0C7010E946806C7010E9437022D
:100EB000C7010E94D90588E893E10E944A025E01B9
:100EC00097E0A90EB11C61E571E0C5010E946806BA
:100ED0006DEB73E0C5010E94B00563E172E00E9412
:100EE000970567EB73E00E94B00565E172E00E9430
:100EF0009705BC01C7010E944E06C7010E94370238
:100F0000C7010E94D905C5010E94D90580E197E279
:100F10000E944A026CE571E0C7010E946806C701A1
:100F20000E943702C7010E94D90588EE93E00E9413
:100F30004A0265E671E0C7010E946806C7010E9487
:100F40003702C7010E94D90588EE93E00E944A0249
:100F500080ED97E00E944A021E2D0F2DFA2CEB2CFB
:100F600062E370E080E090E00E947D064B015C014E
:100F700064E670E080E090E00E947D0669AB7AABA9
:100F80008BAB9CAB62E370E080E090E00E947D065A
:100F90002B013C016FEF70E080E090E00E947D0645
:100FA0006DAB7EAB8FAB98AF6FEF70E080E090E001
:100FB0000E947D0669AF7AAF8BAF9CAF6FEF70E098
:100FC00080E090E00E947D0621966CAF7DAF8EAFF1
:100FD0009FAF219761E771E0CE018B960E94680672
:100FE00063E771E0CE018B960E94C30563E871E070
:100FF000CE018B960E94C30561E771E0CE018B960E
:101000000E94C3054AE0B401812F902F0E9416066A
:101010006CE871E08F2D9E2D0E946806612F702F65
:101020008F2D9E2D0E94B00568E172E00E94970509
:10103000BC01CE018B960E94D2058F2D9E2D0E9461
:10104000D905812F902F0E94D9054AE0B401812F44
:10105000902F0E9416066CE871E08F2D9E2D0E9445
:101060006806612F702F8F2D9E2D0E94B00568E1BC
:1010700072E00E949705BC01CE018B960E94D205BA
:101080008F2D9E2D0E94D905812F902F0E94D9056A
:101090004AE069A97AA9812F902F0E9416066CE96F
:1010A00071E08F2D9E2D0E946806612F702F8F2D6D
:1010B0009E2D0E94B00568E172E00E949705BC0178
:1010C000CE018B960E94D2058F2D9E2D0E94D905B0
:1010D000812F902F0E94D9054AE0B201812F902FD5
:1010E0000E94160669EA71E08F2D9E2D0E94680607
:1010F000612F702F8F2D9E2D0E94B00568E172E048
:101100000E949705BC01CE018B960E94D2058F2DBF
:101110009E2D0E94D905812F902F0E94D9054AE06B
:101120006DA97EA9812F902F0E94160666EB71E0B3
:101130008F2D9E2D0E946806612F702F8F2D9E2D62
:101140000E94B00568E172E00E949705BC01CE01E3
:101150008B960E94D2058F2D9E2D0E94D905812F3E
:10116000902F0E94D9054AE069AD7AAD812F902F6A
:101170000E94160665EC71E08F2D9E2D0E94680678
:10118000612F702F8F2D9E2D0E94B00568E172E0B7
:101190000E949705BC01CE018B960E94D2058F2D2F
:1011A0009E2D0E94D905812F902F0E94D9054AE0DB
:1011B0006DAD7EAD812F902F0E9416066EEC71E012
:1011C0008F2D9E2D0E946806612F702F8F2D9E2DD2
:1011D0000E94B005BC01CE018B960E94D2058F2DD6
:1011E0009E2D0E94D905812F902F0E94D9056DED6B
:1011F00071E0CE018B960E94C3056DED71E0CE01CA
:101200008B960E94C305BE01655D7F4FCE01499656
:101210000E944E066FED71E0CE014F960E94680667
:1012200060EF71E0CE0185960E94680661E072E091
:101230008F2D9E2D0E94680662E973E08F2D9E2DF2
:101240000E94B00567E172E00E9497056CE873E0C8
:101250000E94B005BC01812F902F0E944E06812F65
:10126000902F0E943702812F902F0E94D9058F2D39
:101270009E2D0E94D90588EE93E00E944A026AE101
:1012800072E0812F902F0E946806BE016B5D7F4F38
:10129000812F902F0E94B00560E272E00E949705B6
:1012A000BC01CE0143960E944E06812F902F0E94D2
:1012B000D9056CE272E0812F902F0E94680662E9E6
:1012C00073E0812F902F0E94B00563E372E00E94CB
:1012D00097056CE873E00E94B00569E272E00E9435
:1012E0009705BC01CE0143960E94D205812F902F15
:1012F0000E94D90565E372E0812F902F0E94680655
:10130000BE01615E7F4F812F902F0E94B00569E280
:1013100072E00E949705BC01CE0143960E94D2055F
:10132000812F902F0E94D9056D8D7E8D4AE0812FEF
:10133000902F0E94DE0564E472E08F2D9E2D0E94A6
:101340006806612F702F8F2D9E2D0E94B00569E2D7
:1013500072E00E949705BC01CE0143960E94D2051F
:101360008F2D9E2D0E94D905812F902F0E94D90587
:1013700069E272E0CE0143960E94C305BE01675E3A
:101380007F4FCE0143960E94D2056F89788D4AE047
:101390008F2D9E2D0E94DE0565E572E0CE010D9633
:1013A0000E9468066F2D7E2DCE010D960E94B0051D
:1013B000BC01812F902F0E944E06812F902F0E94FA
:1013C0003702812F902F0E94D905CE010D960E94E1
:1013D000D9058F2D9E2D0E94D90580ED97E00E94A2
:1013E0004A02BE016D5E7F4F812F902F0E944E06F4
:1013F000812F902F0E943702812F902F0E94D905B4
:1014000080ED97E00E944A0263E672E0812F902F00
:101410000E946806812F902F0E943702812F902F03
:101420000E94D90588EE93E00E944A02CE014396BD
:101430000E94D905CE0185960E94D905CE014F960E
:101440000E94D905CE0149960E94D9050E946801E3
:101450002B013C0180E2882E8EE4982EA12CB12C29
:101460000E946801DC01CB0184199509A609B7091E
:10147000883E9340A105B10558F021E0821A9108F9
:10148000A108B10888EE480E83E0581E611C711C4B
:1014900081149104A104B10419F7CE018B960E9426
:1014A000D9050E945E015CCD8CE893E00E94D905CD
:1014B00082E993E00E94D90580E291E0909399033C
:1014C000809398038091ED029091EE0288599340A9
:1014D00071F4E091AB03F091AC0390818091AD0386
:1014E0008095892380831092EE021092ED0287EBA3
:1014F00093E00E94D9058DEB93E00C94D905CF922F
:10150000DF92EF92FF92CF93DF931092F20210924C
:10151000F10268EEC62E63E0D62EE12CF12CC092CB
:10152000F302D092F402E092F502F092F6028EE01D
:1015300091E09093F0028093EF0285EC90E090931D
:10154000FC028093FB0284EC90E09093FE02809377
:10155000FD0280EC90E0909300038093FF0281EC09
:1015600090E0909302038093010382EC90E09093CB
:1015700004038093030386EC90E09093060380932A
:101580000503109208031092090310920A031092A7
:101590000B0361E772E08DEB93E00E9468066AE757
:1015A00072E087EB93E00E94680610929B03109212
:1015B0009A03C0929C03D0929D03E0929E03F09206
:1015C0009F0380E291E09093990380939803109297
:1015D000AF031092AE031092B1031092B0031092B9
:1015E000B3031092B2031092B5031092B40360914A
:1015F000B6036E7F6D7F6093B6036695617081E080
:1016000068278BE00E940903E9EBF0E02491E5EA0A
:10161000F0E08491882399F090E0880F991FFC01F5
:10162000EA57FF4FA591B491FC01E458FF4F859113
:1016300094918FB7F894EC91E22BEC938FBFE9EB88
:10164000F0E0E491E093A803E5EAF0E0E491F0E053
:10165000EE0FFF1FE458FF4F859194919093AA03DA
:101660008093A903E8EBF0E02491E4EAF0E08491B0
:101670008823C1F090E0880F991FFC01EA57FF4FC3
:10168000C591D491FC01E458FF4FA591B4919FB747
:10169000F8948881E22FE0958E2388838C91E8234B
:1016A000EC939FBF8091B60381FD04C061E08AE0A6
:1016B0000E9409038AE08093A403E8EBF0E0E49140
:1016C000E093A503E4EAF0E0E491F0E0EE0FFF1F01
:1016D000E057FF4F859194919093A7038093A603C1
:1016E0006FE872E082E993E00E9468066CE972E0BC
:1016F0008CE893E0DF91CF91FF90EF90DF90CF9057
:101700000C9468068F929F92AF92BF92CF92DF9215
:10171000EF92FF92CF93DF93EC01688179818A8108
:101720009B81611571058105910521F464E279EDD4
:101730008BE597E02DE133EF41E050E00E94290C6A
:1017400049015A019B01AC01A7EAB1E40E94480C8F
:101750006B017C01ACEEB4EFA50194010E94560C24
:10176000DC01CB018C0D9D1DAE1DBF1DB7FF03C05D
:101770000197A109B04888839983AA83BB83BC01E0
:10178000CD019F77DF91CF91FF90EF90DF90CF90C9
:10179000BF90AF909F908F9008950E94820B089504
:1017A00080E091E00E94820B0895609300017093A5
:1017B0000101809302019093030108954532510580
:1017C00020F4423010F00C94E90BFB011082CB01A5
:1017D0000895BB274A3031F4992322F4BDE2909555
:1017E00081959F4F0C94000C4532510520F44230F6
:1017F00010F00C94FF0BFB011082CB010895BB2766
:10180000FB015527AA27880F991FAA1FA41710F0BC
:10181000A41B83955051B9F7A05DAA3308F0A95DC8
:10182000A193009779F7B111B1931192CB010C9468
:10183000190CDC01FC01672F71917723E1F73297D6
:1018400004C07C916D9370836291AE17BF07C8F39B
:101850000895052E97FB1EF400940E94400C57FD3E
:1018600007D00E94920C07FC03D04EF40C94400C5D
:1018700050954095309521953F4F4F4F5F4F0895BC
:1018800090958095709561957F4F8F4F9F4F0895EC
:101890000E94B40CA59F900DB49F900DA49F800D45
:1018A000911D11240895B7FF0C94480C0E94480C18
:1018B000821B930B08952F923F924F925F926F92EB
:1018C0007F928F929F92AF92BF92CF92DF92EF92D0
:1018D000FF920F931F93CF93DF93CDB7DEB7CA1B51
:1018E000DB0B0FB6F894DEBF0FBECDBF09942A887C
:1018F000398848885F846E847D848C849B84AA8424
:10190000B984C884DF80EE80FD800C811B81AA81B0
:10191000B981CE0FD11D0FB6F894DEBF0FBECDBF7B
:10192000ED010895A1E21A2EAA1BBB1BFD010DC0FB
:10193000AA1FBB1FEE1FFF1FA217B307E407F5077F
:1019400020F0A21BB30BE40BF50B661F771F881F5B
:10195000991F1A9469F760957095809590959B01F1
:10196000AC01BD01CF010895A29FB001B39FC0019A
:10197000A39F700D811D1124911DB29F700D811DBB
:101980001124911D089597FB072E16F4009407D09B
:1019900077FD09D00E94D70C07FC05D03EF4909546
:1019A00081959F4F0895709561957F4F0895AA1B6B
:1019B000BB1B51E107C0AA1FBB1FA617B70710F03A
:1019C000A61BB70B881F991F5A95A9F7809590956C
:1019D000BC01CD010895EE0FFF1F0590F491E02D9D
:1019E0000994CF93DF938230910510F482E090E068
:1019F000E091C503F091C60320E030E0C0E0D0E004
:101A0000309711F14081518148175907C0F04817AC
:101A1000590761F482819381209719F09B838A830F
:101A20002BC09093C6038093C50326C021153105B2
:101A300019F04217530718F49A01BE01DF01EF01B4
:101A40000280F381E02DDCCF2115310509F1281B3F
:101A5000390B2430310590F412968D919C91139797
:101A60006115710521F0FB019383828304C090937B
:101A7000C6038093C503FD01329644C0FD01E20F09
:101A8000F31F81939193225031092D933C933AC0D7
:101A90002091C3033091C403232B41F4209106010C
:101AA000309107013093C4032093C30320910401B4
:101AB000309105012115310541F42DB73EB7409114
:101AC000080150910901241B350BE091C303F091EB
:101AD000C403E217F307A0F42E1B3F0B28173907A6
:101AE00078F0AC014E5F5F4F2417350748F04E0F7A
:101AF0005F1F5093C4034093C3038193919302C02B
:101B0000E0E0F0E0CF01DF91CF9108950F931F93B4
:101B1000CF93DF93009709F48CC0FC0132971382B6
:101B200012820091C5031091C6030115110581F4BD
:101B300020813181820F931F2091C3033091C40310
:101B40002817390779F5F093C403E093C30371C0F4
:101B5000D80140E050E0AE17BF0750F412962D9127
:101B60003C911397AD012115310509F1D901F3CF4E
:101B70009D01DA013383228360817181860F971F73
:101B80008217930769F4EC0128813981260F371FEA
:101B90002E5F3F4F318320838A819B819383828391
:101BA000452B29F4F093C603E093C50342C0139676
:101BB000FC93EE931297ED01499159919E01240FE8
:101BC000351FE217F30771F480819181840F951F0F
:101BD000029611969C938E938281938113969C9387
:101BE0008E931297E0E0F0E0D80112968D919C91CF
:101BF0001397009719F0F8018C01F6CF8D919C9105
:101C000098012E5F3F4F820F931F2091C3033091A5
:101C1000C4032817390769F4309729F41092C603D2
:101C20001092C50302C0138212821093C403009362
:101C3000C303DF91CF911F910F910895A0E0B0E011
:101C4000E4E2FEE00C945F0CEC01009721F4CB0180
:101C50000E94F10CB8C0FC01E60FF71F9C01225056
:101C60003109E217F30708F4ACC0D9010D911C91BA
:101C7000119706171707B0F00530110508F49FC03B
:101C8000C80104978617970708F499C002501109F4
:101C9000061B170B019311936D937C93CF010E9448
:101CA000860D8DC05B01A01AB10A4C01800E911EF9
:101CB000A091C503B091C60340E050E0E12CF12CA7
:101CC000109709F44AC0A815B905D1F56D907C901C
:101CD0001197630182E0C80ED11CCA14DB0480F1A5
:101CE000A3014A195B096A0182E0C80ED11C129651
:101CF000BC9012971396AC91B5E0CB16D10440F08E
:101D0000B282A38351834083D9016D937C930AC02F
:101D10000E5F1F4FC301800F911FF90191838083D4
:101D2000EB2DFA2FE114F10431F0D7011396FC9357
:101D3000EE93129744C0F093C603E093C5033FC0EF
:101D40008D919C9111974817590708F4AC017D01BA
:101D500012960D90BC91A02DB3CF8091C3039091AA
:101D6000C40388159905E1F446175707C8F4809114
:101D7000040190910501009741F48DB79EB7409101
:101D8000080150910901841B950BE817F907C8F465
:101D9000F093C403E093C303F901718360830FC020
:101DA000CB010E94F10C7C01009759F0A801BE0103
:101DB0000E94ED0ECE010E94860DC70104C0CE0127
:101DC00002C080E090E0CDB7DEB7EEE00C947B0C73
:101DD00081E090E0F8940C94FD0EFB01DC0102C060
:101DE00001900D9241505040D8F70895FB01DC015D
:101DF00001900D920020E1F7089510E0C2E6D0E0D6
:101E000004C0FE010E94EB0C2196C336D107C9F72E
:041E1000F894FFCF74
:101E1400010000000000C703800000000000F5007E
:101E240019048D003C01BE009C00B00000000000BD
:101E3400A60119043402A501FA0112028D014154CC
:101E44002B5253540041542B43494F424155443D76
:101E5400393630300041542B43574D4F44453D31C2
:101E64000041542B43574A41503D220041542B43D7
:101E7400494653520041542B4349504D55583D3126
:101E8400007B002273746174696F6E4964223A2086
:101E9400302C002264617461223A20002254656D62
:101EA4007065726174757265223A20002248756DFE
:101EB4006964697479223A200022507265737375DB
:101EC4007265223A2000224169725175616C69740D
:101ED40079223A2000225261696E223A200022427D
:101EE40072696768746E657373223A20007D0061BD
:101EF40070706C69636174696F6E2F6A736F6E00C2
:101F04002F6170692F7765617468657264617461AB
:101F14000041542B43495053544152543D342C22D4
:101F2400544350222C2200222C00504F53542000A2
:101F340020485454502F312E310D0A00486F7374C9
:101F44003A20003A00436F6E74656E742D547970B4
:101F5400653A2000436F6E74656E742D4C656E6730
:101F640074683A200041542B43495053454E443D34
:101F7400342C0041542B434950434C4F53453D347A
:101F8400005346525F4637333800756A6861637997
:101F94006965627572636B756E6C6F61663400316E
:101FA40039322E3136382E312E393100333030303B
:021FB40000002B
:107E0000112484B714BE81FFF0D085E080938100F7
:107E100082E08093C00088E18093C10086E0809377
:107E2000C20080E18093C4008EE0C9D0259A86E02C
:107E300020E33CEF91E0309385002093840096BBD3
:107E4000B09BFECF1D9AA8958150A9F7CC24DD24C4
:107E500088248394B5E0AB2EA1E19A2EF3E0BF2EE7
:107E6000A2D0813461F49FD0082FAFD0023811F036
:107E7000013811F484E001C083E08DD089C08234E0
:107E800011F484E103C0853419F485E0A6D080C0E4
:107E9000853579F488D0E82EFF2485D0082F10E0AE
:107EA000102F00270E291F29000F111F8ED06801E7
:107EB0006FC0863521F484E090D080E0DECF843638
:107EC00009F040C070D06FD0082F6DD080E0C81688
:107ED00080E7D80618F4F601B7BEE895C0E0D1E017
:107EE00062D089930C17E1F7F0E0CF16F0E7DF06D8
:107EF00018F0F601B7BEE89568D007B600FCFDCFD4
:107F0000A601A0E0B1E02C9130E011968C91119780
:107F100090E0982F8827822B932B1296FA010C0160
:107F200087BEE89511244E5F5F4FF1E0A038BF0790
:107F300051F7F601A7BEE89507B600FCFDCF97BE46
:107F4000E89526C08437B1F42ED02DD0F82E2BD052
:107F50003CD0F601EF2C8F010F5F1F4F84911BD097
:107F6000EA94F801C1F70894C11CD11CFA94CF0C13
:107F7000D11C0EC0853739F428D08EE10CD085E9AC
:107F80000AD08FE07ACF813511F488E018D01DD067
:107F900080E101D065CF982F8091C00085FFFCCF94
:107FA0009093C60008958091C00087FFFCCF809118
:107FB000C00084FD01C0A8958091C6000895E0E648
:107FC000F0E098E1908380830895EDDF803219F02E
:107FD00088E0F5DFFFCF84E1DECF1F93182FE3DFCA
:107FE0001150E9F7F2DF1F91089580E0E8DFEE27F6
:047FF000FF270994CA
:027FFE00040479
:0400000300007E007B
:00000001FF